{
  "_format": "hh-sol-artifact-1",
  "contractName": "GogoToken",
  "sourceName": "contracts/GogoToken.sol",
  "abi": [
    {
      "inputs": [],
      "stateMutability": "nonpayable",
      "type": "constructor"
    },
    {
      "anonymous": false,
      "inputs": [
        {
          "indexed": true,
          "internalType": "address",
          "name": "owner",
          "type": "address"
        },
        {
          "indexed": true,
          "internalType": "address",
          "name": "spender",
          "type": "address"
        },
        {
          "indexed": false,
          "internalType": "uint256",
          "name": "value",
          "type": "uint256"
        }
      ],
      "name": "Approval",
      "type": "event"
    },
    {
      "anonymous": false,
      "inputs": [
        {
          "indexed": true,
          "internalType": "address",
          "name": "from",
          "type": "address"
        },
        {
          "indexed": true,
          "internalType": "address",
          "name": "to",
          "type": "address"
        },
        {
          "indexed": false,
          "internalType": "uint256",
          "name": "value",
          "type": "uint256"
        }
      ],
      "name": "Transfer",
      "type": "event"
    },
    {
      "inputs": [
        {
          "internalType": "address",
          "name": "owner",
          "type": "address"
        },
        {
          "internalType": "address",
          "name": "spender",
          "type": "address"
        }
      ],
      "name": "allowance",
      "outputs": [
        {
          "internalType": "uint256",
          "name": "",
          "type": "uint256"
        }
      ],
      "stateMutability": "view",
      "type": "function"
    },
    {
      "inputs": [
        {
          "internalType": "address",
          "name": "spender",
          "type": "address"
        },
        {
          "internalType": "uint256",
          "name": "amount",
          "type": "uint256"
        }
      ],
      "name": "approve",
      "outputs": [
        {
          "internalType": "bool",
          "name": "",
          "type": "bool"
        }
      ],
      "stateMutability": "nonpayable",
      "type": "function"
    },
    {
      "inputs": [
        {
          "internalType": "address",
          "name": "account",
          "type": "address"
        }
      ],
      "name": "balanceOf",
      "outputs": [
        {
          "internalType": "uint256",
          "name": "",
          "type": "uint256"
        }
      ],
      "stateMutability": "view",
      "type": "function"
    },
    {
      "inputs": [],
      "name": "decimals",
      "outputs": [
        {
          "internalType": "uint8",
          "name": "",
          "type": "uint8"
        }
      ],
      "stateMutability": "view",
      "type": "function"
    },
    {
      "inputs": [
        {
          "internalType": "address",
          "name": "spender",
          "type": "address"
        },
        {
          "internalType": "uint256",
          "name": "subtractedValue",
          "type": "uint256"
        }
      ],
      "name": "decreaseAllowance",
      "outputs": [
        {
          "internalType": "bool",
          "name": "",
          "type": "bool"
        }
      ],
      "stateMutability": "nonpayable",
      "type": "function"
    },
    {
      "inputs": [
        {
          "internalType": "address",
          "name": "spender",
          "type": "address"
        },
        {
          "internalType": "uint256",
          "name": "addedValue",
          "type": "uint256"
        }
      ],
      "name": "increaseAllowance",
      "outputs": [
        {
          "internalType": "bool",
          "name": "",
          "type": "bool"
        }
      ],
      "stateMutability": "nonpayable",
      "type": "function"
    },
    {
      "inputs": [],
      "name": "name",
      "outputs": [
        {
          "internalType": "string",
          "name": "",
          "type": "string"
        }
      ],
      "stateMutability": "view",
      "type": "function"
    },
    {
      "inputs": [],
      "name": "owner",
      "outputs": [
        {
          "internalType": "address",
          "name": "",
          "type": "address"
        }
      ],
      "stateMutability": "view",
      "type": "function"
    },
    {
      "inputs": [],
      "name": "symbol",
      "outputs": [
        {
          "internalType": "string",
          "name": "",
          "type": "string"
        }
      ],
      "stateMutability": "view",
      "type": "function"
    },
    {
      "inputs": [],
      "name": "total",
      "outputs": [
        {
          "internalType": "uint256",
          "name": "",
          "type": "uint256"
        }
      ],
      "stateMutability": "view",
      "type": "function"
    },
    {
      "inputs": [],
      "name": "totalSupply",
      "outputs": [
        {
          "internalType": "uint256",
          "name": "",
          "type": "uint256"
        }
      ],
      "stateMutability": "view",
      "type": "function"
    },
    {
      "inputs": [
        {
          "internalType": "address",
          "name": "to",
          "type": "address"
        },
        {
          "internalType": "uint256",
          "name": "amount",
          "type": "uint256"
        }
      ],
      "name": "transfer",
      "outputs": [
        {
          "internalType": "bool",
          "name": "",
          "type": "bool"
        }
      ],
      "stateMutability": "nonpayable",
      "type": "function"
    },
    {
      "inputs": [
        {
          "internalType": "address",
          "name": "from",
          "type": "address"
        },
        {
          "internalType": "address",
          "name": "to",
          "type": "address"
        },
        {
          "internalType": "uint256",
          "name": "amount",
          "type": "uint256"
        }
      ],
      "name": "transferFrom",
      "outputs": [
        {
          "internalType": "bool",
          "name": "",
          "type": "bool"
        }
      ],
      "stateMutability": "nonpayable",
      "type": "function"
    }
  ],
  "bytecode": "0x6080604052620186a06005553480156200001857600080fd5b506040518060400160405280600981526020016823b7b3b7aa37b5b2b760b91b8152506040518060400160405280600381526020016247544b60e81b81525081600390805190602001906200006f929190620001c4565b50805162000085906004906020840190620001c4565b505050620000bf336200009d620000d760201b60201c565b620000aa90600a620002d2565b600554620000b99190620003ca565b620000dc565b600680546001600160a01b031916331790556200043f565b601290565b6001600160a01b038216620001375760405162461bcd60e51b815260206004820152601f60248201527f45524332303a206d696e7420746f20746865207a65726f206164647265737300604482015260640160405180910390fd5b80600260008282546200014b91906200026a565b90915550506001600160a01b038216600090815260208190526040812080548392906200017a9084906200026a565b90915550506040518181526001600160a01b038316906000907fddf252ad1be2c89b69c2b068fc378daa952ba7f163c4a11628f55a4df523b3ef9060200160405180910390a35050565b828054620001d290620003ec565b90600052602060002090601f016020900481019282620001f6576000855562000241565b82601f106200021157805160ff191683800117855562000241565b8280016001018555821562000241579182015b828111156200024157825182559160200191906001019062000224565b506200024f92915062000253565b5090565b5b808211156200024f576000815560010162000254565b6000821982111562000280576200028062000429565b500190565b80825b6001808611620002995750620002c9565b818704821115620002ae57620002ae62000429565b80861615620002bc57918102915b9490941c93800262000288565b94509492505050565b6000620002e660001960ff851684620002ed565b9392505050565b600082620002fe57506001620002e6565b816200030d57506000620002e6565b8160018114620003265760028114620003315762000365565b6001915050620002e6565b60ff84111562000345576200034562000429565b6001841b9150848211156200035e576200035e62000429565b50620002e6565b5060208310610133831016604e8410600b84101617156200039d575081810a8381111562000397576200039762000429565b620002e6565b620003ac848484600162000285565b808604821115620003c157620003c162000429565b02949350505050565b6000816000190483118215151615620003e757620003e762000429565b500290565b600181811c908216806200040157607f821691505b602082108114156200042357634e487b7160e01b600052602260045260246000fd5b50919050565b634e487b7160e01b600052601160045260246000fd5b6109c9806200044f6000396000f3fe608060405234801561001057600080fd5b50600436106100df5760003560e01c8063395093511161008c57806395d89b411161006657806395d89b41146101b3578063a457c2d7146101bb578063a9059cbb146101ce578063dd62ed3e146101e1576100df565b8063395093511461016257806370a08231146101755780638da5cb5b14610188576100df565b806323b872dd116100bd57806323b872dd146101375780632ddbd13a1461014a578063313ce56714610153576100df565b806306fdde03146100e4578063095ea7b31461010257806318160ddd14610125575b600080fd5b6100ec61021a565b6040516100f991906108e1565b60405180910390f35b6101156101103660046108b8565b6102ac565b60405190151581526020016100f9565b6002545b6040519081526020016100f9565b61011561014536600461087d565b6102c4565b61012960055481565b604051601281526020016100f9565b6101156101703660046108b8565b6102e8565b61012961018336600461082a565b610327565b60065461019b906001600160a01b031681565b6040516001600160a01b0390911681526020016100f9565b6100ec610346565b6101156101c93660046108b8565b610355565b6101156101dc3660046108b8565b610404565b6101296101ef36600461084b565b6001600160a01b03918216600090815260016020908152604080832093909416825291909152205490565b60606003805461022990610958565b80601f016020809104026020016040519081016040528092919081815260200182805461025590610958565b80156102a25780601f10610277576101008083540402835291602001916102a2565b820191906000526020600020905b81548152906001019060200180831161028557829003601f168201915b5050505050905090565b6000336102ba818585610412565b5060019392505050565b6000336102d285828561056a565b6102dd8585856105fc565b506001949350505050565b3360008181526001602090815260408083206001600160a01b03871684529091528120549091906102ba9082908690610322908790610934565b610412565b6001600160a01b0381166000908152602081905260409020545b919050565b60606004805461022990610958565b3360008181526001602090815260408083206001600160a01b0387168452909152812054909190838110156103f75760405162461bcd60e51b815260206004820152602560248201527f45524332303a2064656372656173656420616c6c6f77616e63652062656c6f7760448201527f207a65726f00000000000000000000000000000000000000000000000000000060648201526084015b60405180910390fd5b6102dd8286868403610412565b6000336102ba8185856105fc565b6001600160a01b03831661048d5760405162461bcd60e51b8152602060048201526024808201527f45524332303a20617070726f76652066726f6d20746865207a65726f2061646460448201527f726573730000000000000000000000000000000000000000000000000000000060648201526084016103ee565b6001600160a01b0382166105095760405162461bcd60e51b815260206004820152602260248201527f45524332303a20617070726f766520746f20746865207a65726f20616464726560448201527f737300000000000000000000000000000000000000000000000000000000000060648201526084016103ee565b6001600160a01b0383811660008181526001602090815260408083209487168084529482529182902085905590518481527f8c5be1e5ebec7d5bd14f71427d1e84f3dd0314c0f7b2291e5b200ac8c7c3b925910160405180910390a3505050565b6001600160a01b0383811660009081526001602090815260408083209386168352929052205460001981146105f657818110156105e95760405162461bcd60e51b815260206004820152601d60248201527f45524332303a20696e73756666696369656e7420616c6c6f77616e636500000060448201526064016103ee565b6105f68484848403610412565b50505050565b6001600160a01b0383166106785760405162461bcd60e51b815260206004820152602560248201527f45524332303a207472616e736665722066726f6d20746865207a65726f20616460448201527f647265737300000000000000000000000000000000000000000000000000000060648201526084016103ee565b6001600160a01b0382166106f45760405162461bcd60e51b815260206004820152602360248201527f45524332303a207472616e7366657220746f20746865207a65726f206164647260448201527f657373000000000000000000000000000000000000000000000000000000000060648201526084016103ee565b6001600160a01b038316600090815260208190526040902054818110156107835760405162461bcd60e51b815260206004820152602660248201527f45524332303a207472616e7366657220616d6f756e742065786365656473206260448201527f616c616e6365000000000000000000000000000000000000000000000000000060648201526084016103ee565b6001600160a01b038085166000908152602081905260408082208585039055918516815290812080548492906107ba908490610934565b92505081905550826001600160a01b0316846001600160a01b03167fddf252ad1be2c89b69c2b068fc378daa952ba7f163c4a11628f55a4df523b3ef8460405161080691815260200190565b60405180910390a36105f6565b80356001600160a01b038116811461034157600080fd5b60006020828403121561083b578081fd5b61084482610813565b9392505050565b6000806040838503121561085d578081fd5b61086683610813565b915061087460208401610813565b90509250929050565b600080600060608486031215610891578081fd5b61089a84610813565b92506108a860208501610813565b9150604084013590509250925092565b600080604083850312156108ca578182fd5b6108d383610813565b946020939093013593505050565b6000602080835283518082850152825b8181101561090d578581018301518582016040015282016108f1565b8181111561091e5783604083870101525b50601f01601f1916929092016040019392505050565b6000821982111561095357634e487b7160e01b81526011600452602481fd5b500190565b600181811c9082168061096c57607f821691505b6020821081141561098d57634e487b7160e01b600052602260045260246000fd5b5091905056fea2646970667358221220bd3605dc89607a71861b6c5fbe7f08bd3ab580b53ab5cf1be52ac944e9bee72464736f6c63430008030033",
  "linkReferences": {},
  "deployedLinkReferences": {}
}