{
  "_format": "hh-sol-artifact-1",
  "contractName": "Lottery",
  "sourceName": "contracts/Lottery.sol",
  "abi": [
    {
      "inputs": [],
      "name": "enter",
      "outputs": [],
      "stateMutability": "payable",
      "type": "function"
    },
    {
      "inputs": [],
      "name": "lottery",
      "outputs": [],
      "stateMutability": "nonpayable",
      "type": "function"
    },
    {
      "inputs": [],
      "name": "manager",
      "outputs": [
        {
          "internalType": "address",
          "name": "",
          "type": "address"
        }
      ],
      "stateMutability": "view",
      "type": "function"
    },
    {
      "inputs": [],
      "name": "pickWinner",
      "outputs": [],
      "stateMutability": "nonpayable",
      "type": "function"
    },
    {
      "inputs": [
        {
          "internalType": "uint256",
          "name": "",
          "type": "uint256"
        }
      ],
      "name": "players",
      "outputs": [
        {
          "internalType": "address",
          "name": "",
          "type": "address"
        }
      ],
      "stateMutability": "view",
      "type": "function"
    }
  ],
  "bytecode": "0x608060405234801561001057600080fd5b506103cf806100206000396000f3fe60806040526004361061005a5760003560e01c8063ba13a57211610043578063ba13a572146100b2578063e97dcb62146100e3578063f71d96cb146100eb5761005a565b8063481c6a751461005f5780635d495aea1461009b575b600080fd5b34801561006b57600080fd5b5060005461007f906001600160a01b031681565b6040516001600160a01b03909116815260200160405180910390f35b3480156100a757600080fd5b506100b061010b565b005b3480156100be57600080fd5b506100b06000805473ffffffffffffffffffffffffffffffffffffffff191633179055565b6100b06101c0565b3480156100f757600080fd5b5061007f610106366004610308565b610223565b6000546001600160a01b0316331461012257600080fd5b60015460009061013061024d565b61013a9190610379565b90506001818154811061015d57634e487b7160e01b600052603260045260246000fd5b60009182526020822001546040516001600160a01b03909116914780156108fc02929091818181858888f1935050505015801561019e573d6000803e3d6000fd5b5060408051600081526020810191829052516101bc91600191610281565b5050565b662386f26fc1000034116101d357600080fd5b6001805480820182556000919091527fb10e2d527612073b26eecdfd717e6a320cf44b4afac2b0732d9fcbe2b7fa0cf601805473ffffffffffffffffffffffffffffffffffffffff191633179055565b6001818154811061023357600080fd5b6000918252602090912001546001600160a01b0316905081565b6000426001604051602001610263929190610320565b6040516020818303038152906040528051906020012060001c905090565b8280548282559060005260206000209081019282156102e3579160200282015b828111156102e3578251825473ffffffffffffffffffffffffffffffffffffffff19166001600160a01b039091161782556020909201916001909101906102a1565b506102ef9291506102f3565b5090565b5b808211156102ef57600081556001016102f4565b600060208284031215610319578081fd5b5035919050565b60006040820184835260206040818501528185548084526060860191508685528285209350845b8181101561036c5784546001600160a01b031683526001948501949284019201610347565b5090979650505050505050565b60008261039457634e487b7160e01b81526012600452602481fd5b50069056fea2646970667358221220b30c104bdf2ab7a1a56334415ef3c5cd74cd87ed72a164b05c78e339adb45fc164736f6c63430008030033",
  "linkReferences": {},
  "deployedLinkReferences": {}
}