{
  "_format": "hh-sol-artifact-1",
  "contractName": "TicketsFactory",
  "sourceName": "contracts/TicketFactory.sol",
  "abi": [
    {
      "anonymous": false,
      "inputs": [
        {
          "indexed": false,
          "internalType": "address",
          "name": "ntfAddress",
          "type": "address"
        },
        {
          "indexed": false,
          "internalType": "address",
          "name": "marketplaceAddress",
          "type": "address"
        }
      ],
      "name": "Created",
      "type": "event"
    },
    {
      "anonymous": false,
      "inputs": [
        {
          "indexed": true,
          "internalType": "address",
          "name": "previousOwner",
          "type": "address"
        },
        {
          "indexed": true,
          "internalType": "address",
          "name": "newOwner",
          "type": "address"
        }
      ],
      "name": "OwnershipTransferred",
      "type": "event"
    },
    {
      "inputs": [
        {
          "internalType": "contract GogoToken",
          "name": "token",
          "type": "address"
        },
        {
          "internalType": "string",
          "name": "festName",
          "type": "string"
        },
        {
          "internalType": "string",
          "name": "festSymbol",
          "type": "string"
        },
        {
          "internalType": "uint256",
          "name": "ticketPrice",
          "type": "uint256"
        },
        {
          "internalType": "uint256",
          "name": "totalSupply",
          "type": "uint256"
        }
      ],
      "name": "createNewFest",
      "outputs": [
        {
          "internalType": "address",
          "name": "",
          "type": "address"
        }
      ],
      "stateMutability": "nonpayable",
      "type": "function"
    },
    {
      "inputs": [],
      "name": "getActiveFests",
      "outputs": [
        {
          "internalType": "address[]",
          "name": "",
          "type": "address[]"
        }
      ],
      "stateMutability": "view",
      "type": "function"
    },
    {
      "inputs": [
        {
          "internalType": "address",
          "name": "festAddress",
          "type": "address"
        }
      ],
      "name": "getFestDetails",
      "outputs": [
        {
          "internalType": "string",
          "name": "",
          "type": "string"
        },
        {
          "internalType": "string",
          "name": "",
          "type": "string"
        },
        {
          "internalType": "uint256",
          "name": "",
          "type": "uint256"
        },
        {
          "internalType": "uint256",
          "name": "",
          "type": "uint256"
        },
        {
          "internalType": "address",
          "name": "",
          "type": "address"
        }
      ],
      "stateMutability": "view",
      "type": "function"
    },
    {
      "inputs": [],
      "name": "owner",
      "outputs": [
        {
          "internalType": "address",
          "name": "",
          "type": "address"
        }
      ],
      "stateMutability": "view",
      "type": "function"
    },
    {
      "inputs": [],
      "name": "renounceOwnership",
      "outputs": [],
      "stateMutability": "nonpayable",
      "type": "function"
    },
    {
      "inputs": [
        {
          "internalType": "address",
          "name": "newOwner",
          "type": "address"
        }
      ],
      "name": "transferOwnership",
      "outputs": [],
      "stateMutability": "nonpayable",
      "type": "function"
    }
  ],
  "bytecode": "0x608060405234801561001057600080fd5b5061001a3361001f565b61006f565b600080546001600160a01b038381166001600160a01b0319831681178455604051919092169283917f8be0079c531659141344cd1fd0a4f28419497f9722a3daafe3b4186f6b6457e09190a35050565b615c788061007e6000396000f3fe60806040523480156200001157600080fd5b50600436106200007c5760003560e01c80638da5cb5b11620000575780638da5cb5b14620000d95780638f4e628914620000ff578063f2fde38b1462000116576200007c565b8063118648ea1462000081578063294fbbf114620000a3578063715018a614620000cd575b600080fd5b6200008b6200012d565b6040516200009a9190620008ed565b60405180910390f35b620000ba620000b4366004620007eb565b62000191565b6040516200009a9594939291906200093c565b620000d76200030a565b005b6000546001600160a01b03165b6040516001600160a01b0390911681526020016200009a565b620000e66200011036600462000811565b62000378565b620000d762000127366004620007eb565b62000555565b606060018054806020026020016040519081016040528092919081815260200182805480156200018757602002820191906000526020600020905b81546001600160a01b0316815260019091019060200180831162000168575b5050505050905090565b6001600160a01b0380821660009081526002602081905260408220908101546003820154600483015483546060968796958695869591946001860194919316908590620001de906200098c565b80601f01602080910402602001604051908101604052809291908181526020018280546200020c906200098c565b80156200025d5780601f1062000231576101008083540402835291602001916200025d565b820191906000526020600020905b8154815290600101906020018083116200023f57829003601f168201915b5050505050945083805462000272906200098c565b80601f0160208091040260200160405190810160405280929190818152602001828054620002a0906200098c565b8015620002f15780601f10620002c557610100808354040283529160200191620002f1565b820191906000526020600020905b815481529060010190602001808311620002d357829003601f168201915b50989f939e50959c50939a509198509650505050505050565b6000546001600160a01b031633146200036a5760405162461bcd60e51b815260206004820181905260248201527f4f776e61626c653a2063616c6c6572206973206e6f7420746865206f776e657260448201526064015b60405180910390fd5b6200037660006200063d565b565b60008085858585336040516200038e906200069a565b6200039e9594939291906200093c565b604051809103906000f080158015620003bb573d6000803e3d6000fd5b50905060008782604051620003d090620006a8565b6001600160a01b03928316815291166020820152604001604051809103906000f08015801562000404573d6000803e3d6000fd5b50600180548082019091557fb10e2d527612073b26eecdfd717e6a320cf44b4afac2b0732d9fcbe2b7fa0cf601805473ffffffffffffffffffffffffffffffffffffffff19166001600160a01b038581169182179092556040805160a0810182528b815260208082018c90528183018b9052606082018a90529385166080820152600092835260028452912081518051949550869492939192620004ac9284920190620006b6565b506020828101518051620004c79260018501920190620006b6565b506040828101516002830155606083015160038301556080909201516004909101805473ffffffffffffffffffffffffffffffffffffffff19166001600160a01b039283161790558151838216815290841660208201527f587ece4cd19692c5be1a4184503d607d45542d2aca0698c0068f52e09ccb541c910160405180910390a198975050505050505050565b6000546001600160a01b03163314620005b15760405162461bcd60e51b815260206004820181905260248201527f4f776e61626c653a2063616c6c6572206973206e6f7420746865206f776e6572604482015260640162000361565b6001600160a01b0381166200062f5760405162461bcd60e51b815260206004820152602660248201527f4f776e61626c653a206e6577206f776e657220697320746865207a65726f206160448201527f6464726573730000000000000000000000000000000000000000000000000000606482015260840162000361565b6200063a816200063d565b50565b600080546001600160a01b0383811673ffffffffffffffffffffffffffffffffffffffff19831681178455604051919092169283917f8be0079c531659141344cd1fd0a4f28419497f9722a3daafe3b4186f6b6457e09190a35050565b61364780620009f683390190565b611c06806200403d83390190565b828054620006c4906200098c565b90600052602060002090601f016020900481019282620006e8576000855562000733565b82601f106200070357805160ff191683800117855562000733565b8280016001018555821562000733579182015b828111156200073357825182559160200191906001019062000716565b506200074192915062000745565b5090565b5b8082111562000741576000815560010162000746565b600082601f8301126200076d578081fd5b813567ffffffffffffffff808211156200078b576200078b620009c9565b604051601f8301601f19908116603f01168101908282118183101715620007b657620007b6620009c9565b81604052838152866020858801011115620007cf578485fd5b8360208701602083013792830160200193909352509392505050565b600060208284031215620007fd578081fd5b81356200080a81620009df565b9392505050565b600080600080600060a0868803121562000829578081fd5b85356200083681620009df565b9450602086013567ffffffffffffffff8082111562000853578283fd5b6200086189838a016200075c565b9550604088013591508082111562000877578283fd5b5062000886888289016200075c565b9598949750949560608101359550608001359392505050565b60008151808452815b81811015620008c657602081850181015186830182015201620008a8565b81811115620008d85782602083870101525b50601f01601f19169290920160200192915050565b6020808252825182820181905260009190848201906040850190845b81811015620009305783516001600160a01b03168352928401929184019160010162000909565b50909695505050505050565b600060a082526200095160a08301886200089f565b82810360208401526200096581886200089f565b6040840196909652505060608101929092526001600160a01b031660809091015292915050565b600181811c90821680620009a157607f821691505b60208210811415620009c357634e487b7160e01b600052602260045260246000fd5b50919050565b634e487b7160e01b600052604160045260246000fd5b6001600160a01b03811681146200063a57600080fdfe60806040523480156200001157600080fd5b5060405162003647380380620036478339810160408190526200003491620002d2565b8451859085906200004d90600190602085019062000179565b5080516200006390600290602084019062000179565b505050620000987f9f2df0fed2c77648de5860a4cc508cd0818c85b8b8a1ab4ceeef8d981c8956a682620000c960201b60201c565b600f92909255601055600a80546001600160a01b0319166001600160a01b0390921691909117905550620003c39050565b620000d58282620000d9565b5050565b6000828152602081815260408083206001600160a01b038516845290915290205460ff16620000d5576000828152602081815260408083206001600160a01b03851684529091529020805460ff19166001179055620001353390565b6001600160a01b0316816001600160a01b0316837f2f8788117e7eff1d82e926ec794901d17c78024a50270940304540a733656f0d60405160405180910390a45050565b828054620001879062000370565b90600052602060002090601f016020900481019282620001ab5760008555620001f6565b82601f10620001c657805160ff1916838001178555620001f6565b82800160010185558215620001f6579182015b82811115620001f6578251825591602001919060010190620001d9565b506200020492915062000208565b5090565b5b8082111562000204576000815560010162000209565b600082601f83011262000230578081fd5b81516001600160401b03808211156200024d576200024d620003ad565b604051601f8301601f19908116603f01168101908282118183101715620002785762000278620003ad565b8160405283815260209250868385880101111562000294578485fd5b8491505b83821015620002b7578582018301518183018401529082019062000298565b83821115620002c857848385830101525b9695505050505050565b600080600080600060a08688031215620002ea578081fd5b85516001600160401b038082111562000301578283fd5b6200030f89838a016200021f565b9650602088015191508082111562000325578283fd5b5062000334888289016200021f565b6040880151606089015160808a0151929750909550935090506001600160a01b038116811462000362578182fd5b809150509295509295909350565b600181811c908216806200038557607f821691505b60208210811415620003a757634e487b7160e01b600052602260045260246000fd5b50919050565b634e487b7160e01b600052604160045260246000fd5b61327480620003d36000396000f3fe608060405234801561001057600080fd5b50600436106102d35760003560e01c806370a0823111610186578063abb95b74116100e3578063c87b56dd11610097578063d547741f11610071578063d547741f146105e4578063e3278ad6146105f7578063e985e9c5146105ff576102d3565b8063c87b56dd14610597578063d45be3ae146105aa578063d5391393146105bd576102d3565b8063b632c9e4116100c8578063b632c9e41461055e578063b88d4fde14610571578063c83b459014610584576102d3565b8063abb95b741461054e578063af8f10c814610556576102d3565b806399411bee1161013a578063a182c2d41161011f578063a182c2d41461052b578063a217fddf14610533578063a22cb4651461053b576102d3565b806399411bee146105105780639ad570f614610523576102d3565b806387bb7ae01161016b57806387bb7ae0146104c957806391d14854146104d157806395d89b4114610508576102d3565b806370a08231146104a3578063750e024c146104b6576102d3565b80632f2ff15d116102345780634644be60116101e85780636352211e116101cd5780636352211e1461046a57806364d7f44f1461047d5780636afadefb14610490576102d3565b80634644be6014610434578063569e35db14610447576102d3565b806336568abe1161021957806336568abe146104065780633dbf12411461041957806342842e0e14610421576102d3565b80632f2ff15d146103de57806335fe12d8146103f1576102d3565b80630b7055781161028b57806323b872dd1161027057806323b872dd14610384578063248a9ca31461039757806324c14160146103ba576102d3565b80630b7055781461036b5780630cdf1df71461037c576102d3565b806306fdde03116102bc57806306fdde0314610316578063081812fc1461032b578063095ea7b314610356576102d3565b806301ffc9a7146102d8578063065366ee14610300575b600080fd5b6102eb6102e6366004612ec2565b61063b565b60405190151581526020015b60405180910390f35b61030861064e565b6040519081526020016102f7565b61031e610689565b6040516102f7919061308a565b61033e610339366004612e88565b61071b565b6040516001600160a01b0390911681526020016102f7565b610369610364366004612e5f565b6107b5565b005b600a546001600160a01b031661033e565b601154610308565b610369610392366004612d15565b6108e7565b6103086103a5366004612e88565b60009081526020819052604090206001015490565b6103cd6103c8366004612e88565b61096e565b6040516102f795949392919061309d565b6103696103ec366004612ea0565b610a48565b6103f9610a6d565b6040516102f79190613046565b610369610414366004612ea0565b610ac4565b610308610b50565b61036961042f366004612d15565b610b6d565b610369610442366004612ea0565b610b88565b610308610455366004612e88565b60009081526012602052604090206001015490565b61033e610478366004612e88565b610c91565b61036961048b366004612efa565b610d1c565b61036961049e366004612cc9565b610f5c565b6103086104b1366004612cc9565b6110b6565b6103696104c4366004612ea0565b611150565b600f54610308565b6102eb6104df366004612ea0565b6000918252602082815260408084206001600160a01b0393909316845291905290205460ff1690565b61031e611254565b61036961051e366004612cc9565b611263565b6103f96112ae565b610369611304565b610308600081565b610369610549366004612e25565b611404565b6103f961140f565b610308611465565b6103f961056c366004612cc9565b61147d565b61036961057f366004612d50565b6114e9565b610369610592366004612e5f565b611571565b61031e6105a5366004612e88565b611784565b6102eb6105b8366004612cc9565b61187a565b6103087f9f2df0fed2c77648de5860a4cc508cd0818c85b8b8a1ab4ceeef8d981c8956a681565b6103696105f2366004612ea0565b6118f3565b610308611918565b6102eb61060d366004612ce3565b6001600160a01b03918216600090815260066020908152604080832093909416825291909152205460ff1690565b600061064682611923565b90505b919050565b6000600c61065b60085490565b8154811061067957634e487b7160e01b600052603260045260246000fd5b9060005260206000200154905090565b6060600180546106989061317c565b80601f01602080910402602001604051908101604052809291908181526020018280546106c49061317c565b80156107115780601f106106e657610100808354040283529160200191610711565b820191906000526020600020905b8154815290600101906020018083116106f457829003601f168201915b5050505050905090565b6000818152600360205260408120546001600160a01b03166107995760405162461bcd60e51b815260206004820152602c60248201527f4552433732313a20617070726f76656420717565727920666f72206e6f6e657860448201526b34b9ba32b73a103a37b5b2b760a11b60648201526084015b60405180910390fd5b506000908152600560205260409020546001600160a01b031690565b60006107c082610c91565b9050806001600160a01b0316836001600160a01b0316141561084a5760405162461bcd60e51b815260206004820152602160248201527f4552433732313a20617070726f76616c20746f2063757272656e74206f776e6560448201527f72000000000000000000000000000000000000000000000000000000000000006064820152608401610790565b336001600160a01b03821614806108665750610866813361060d565b6108d85760405162461bcd60e51b815260206004820152603860248201527f4552433732313a20617070726f76652063616c6c6572206973206e6f74206f7760448201527f6e6572206e6f7220617070726f76656420666f7220616c6c00000000000000006064820152608401610790565b6108e28383611995565b505050565b6108f13382611a03565b6109635760405162461bcd60e51b815260206004820152603160248201527f4552433732313a207472616e736665722063616c6c6572206973206e6f74206f60448201527f776e6572206e6f7220617070726f7665640000000000000000000000000000006064820152608401610790565b6108e2838383611afa565b6000818152601260205260408120805460018201546002830154600390930180548594859485946060949193909260ff80821693610100909204169181906109b59061317c565b80601f01602080910402602001604051908101604052809291908181526020018280546109e19061317c565b8015610a2e5780601f10610a0357610100808354040283529160200191610a2e565b820191906000526020600020905b815481529060010190602001808311610a1157829003601f168201915b505050505090509450945094509450945091939590929450565b600082815260208190526040902060010154610a6381611cc7565b6108e28383611cd1565b6060600c80548060200260200160405190810160405280929190818152602001828054801561071157602002820191906000526020600020905b815481526020019060010190808311610aa7575050505050905090565b6001600160a01b0381163314610b425760405162461bcd60e51b815260206004820152602f60248201527f416363657373436f6e74726f6c3a2063616e206f6e6c792072656e6f756e636560448201527f20726f6c657320666f722073656c6600000000000000000000000000000000006064820152608401610790565b610b4c8282611d6f565b5050565b6000610b5b60095490565b600e54610b689190613122565b905090565b6108e2838383604051806020016040528060008152506114e9565b60105460075410610bdb5760405162461bcd60e51b815260206004820152601e60248201527f4d6178696d756d207469636b6574206c696d69742065786365656465642100006044820152606401610790565b6103e882610be7611918565b610bf191906130d7565b1115610c655760405162461bcd60e51b815260206004820152602e60248201527f4e756d626572206f66207469636b6574732065786365656473206d6178696d7560448201527f6d207469636b657420636f756e740000000000000000000000000000000000006064820152608401610790565b601182905560005b828110156108e257610c7e82611dee565b5080610c89816131b7565b915050610c6d565b6000818152600360205260408120546001600160a01b0316806106465760405162461bcd60e51b815260206004820152602960248201527f4552433732313a206f776e657220717565727920666f72206e6f6e657869737460448201527f656e7420746f6b656e00000000000000000000000000000000000000000000006064820152608401610790565b60008381526012602052604090208054600290910154610100900460ff16610d865760405162461bcd60e51b815260206004820152601c60248201527f546865207469636b65742063616e6e6f742062652072652d73656c6c000000006044820152606401610790565b826064610d94836082613103565b610d9e91906130ef565b11610df65760405162461bcd60e51b815260206004820152602260248201527f52652d73656c6c696e67207072696365206973206d6f7265207468616e203133604482015261302560f01b6064820152608401610790565b610e207f9f2df0fed2c77648de5860a4cc508cd0818c85b8b8a1ab4ceeef8d981c8956a6336104df565b15610e935760405162461bcd60e51b815260206004820152602f60248201527f46756e6374696f6e616c697479206f6e6c7920616c6c6f77656420666f72207360448201527f65636f6e64617279206d61726b657400000000000000000000000000000000006064820152608401610790565b6000848152601260208181526040808420600180820189905560028201805461ffff191690911790558151808301909252601382527f57616974696e6720466f722052652d73656c6c00000000000000000000000000828401908152948990529290915251610f089260039092019190612c19565b50610f1284611f89565b610f4c57600c80546001810182556000919091527fdf6966c971051c3d54ec59162606531493a51404a002842f56009d7e5cf4a8c7018490555b610f5682856107b5565b50505050565b6000610f6760085490565b90506000600d8281548110610f8c57634e487b7160e01b600052603260045260246000fd5b90600052602060002001549050610fa7600880546001019055565b610fb081610c91565b6001600160a01b0316336001600160a01b0316146110105760405162461bcd60e51b815260206004820152601d60248201527f4f6e6c7920696e697469616c20707572636861736520616c6c6f7765640000006044820152606401610790565b61101a83826107b5565b61102d61102682610c91565b84836108e7565b6110368361187a565b61108657600b80546001810182556000919091527f0175b7a638427703f0dbe7bb9bbf987a2551717b34e79f33b5b1008d1fa01db90180546001600160a01b0319166001600160a01b0385161790555b6001600160a01b039092166000908152601360209081526040822080546001810182559083529120019190915550565b60006001600160a01b0382166111345760405162461bcd60e51b815260206004820152602a60248201527f4552433732313a2062616c616e636520717565727920666f7220746865207a6560448201527f726f2061646472657373000000000000000000000000000000000000000000006064820152608401610790565b506001600160a01b031660009081526004602052604090205490565b601054600754106111a35760405162461bcd60e51b815260206004820152601e60248201527f4d6178696d756d207469636b6574206c696d69742065786365656465642100006044820152606401610790565b6103e8826111af611918565b6111b991906130d7565b111561122d5760405162461bcd60e51b815260206004820152602e60248201527f4e756d626572206f66207469636b6574732065786365656473206d6178696d7560448201527f6d207469636b657420636f756e740000000000000000000000000000000000006064820152608401610790565b60005b828110156108e25761124182611fe6565b508061124c816131b7565b915050611230565b6060600280546106989061317c565b600061126e60095490565b90506000600e828154811061129357634e487b7160e01b600052603260045260246000fd5b90600052602060002001549050610fa7600980546001019055565b6060600e8054806020026020016040519081016040528092919081815260200182805480156107115760200282019190600052602060002090815481526020019060010190808311610aa7575050505050905090565b60005b600e5481101561140157600d600e828154811061133457634e487b7160e01b600052603260045260246000fd5b6000918252602080832090910154835460018181018655948452919092200155600e8054909161136391613122565b8154811061138157634e487b7160e01b600052603260045260246000fd5b9060005260206000200154600e82815481106113ad57634e487b7160e01b600052603260045260246000fd5b600091825260209091200155600e8054806113d857634e487b7160e01b600052603160045260246000fd5b6001900381819060005260206000200160009055905580806113f9906131b7565b915050611307565b50565b610b4c338383612178565b6060600d8054806020026020016040519081016040528092919081815260200182805480156107115760200282019190600052602060002090815481526020019060010190808311610aa7575050505050905090565b600061147060085490565b600d54610b689190613122565b6001600160a01b0381166000908152601360209081526040918290208054835181840281018401909452808452606093928301828280156114dd57602002820191906000526020600020905b8154815260200190600101908083116114c9575b50505050509050919050565b6114f33383611a03565b6115655760405162461bcd60e51b815260206004820152603160248201527f4552433732313a207472616e736665722063616c6c6572206973206e6f74206f60448201527f776e6572206e6f7220617070726f7665640000000000000000000000000000006064820152608401610790565b610f5684848484612247565b6000818152601260205260409020805460019091015482919080606461159884606e613103565b6115a291906130ef565b6115ac90846130d7565b116116045760405162461bcd60e51b815260206004820152602260248201527f52652d73656c6c696e67207072696365206973206d6f7265207468616e203131604482015261302560f01b6064820152608401610790565b600061160f85610c91565b60008681526012602052604090206001015490915061162f8288886108e7565b6116388761187a565b61168857600b80546001810182556000919091527f0175b7a638427703f0dbe7bb9bbf987a2551717b34e79f33b5b1008d1fa01db90180546001600160a01b0319166001600160a01b0389161790555b6001600160a01b0387166000908152601360209081526040822080546001810182559083529120018690556116bd82876122d0565b6116c68661244f565b6040805160a081018252828152600060208083018281528385018381526060850184815286518088018852601481527f5472616e73666572656420746f206f746865727300000000000000000000000081860152608087019081528d86526012855296909420855181559151600183015551600282018054945115156101000261ff00199215159290921661ffff19909516949094171790925592518051929391926117789260038501920190612c19565b50505050505050505050565b6000818152600360205260409020546060906001600160a01b03166118115760405162461bcd60e51b815260206004820152602f60248201527f4552433732314d657461646174613a2055524920717565727920666f72206e6f60448201527f6e6578697374656e7420746f6b656e00000000000000000000000000000000006064820152608401610790565b600061182860408051602081019091526000815290565b905060008151116118485760405180602001604052806000815250611873565b8061185284612568565b604051602001611863929190612f5a565b6040516020818303038152906040525b9392505050565b6000805b600b548110156118ea57826001600160a01b0316600b82815481106118b357634e487b7160e01b600052603260045260246000fd5b6000918252602090912001546001600160a01b031614156118d8576001915050610649565b806118e2816131b7565b91505061187e565b50600092915050565b60008281526020819052604090206001015461190e81611cc7565b6108e28383611d6f565b6000610b6860075490565b60006001600160e01b031982167f80ac58cd00000000000000000000000000000000000000000000000000000000148061198657506001600160e01b031982167f5b5e139f00000000000000000000000000000000000000000000000000000000145b80610646575061064682612683565b600081815260056020526040902080546001600160a01b0319166001600160a01b03841690811790915581906119ca82610c91565b6001600160a01b03167f8c5be1e5ebec7d5bd14f71427d1e84f3dd0314c0f7b2291e5b200ac8c7c3b92560405160405180910390a45050565b6000818152600360205260408120546001600160a01b0316611a7c5760405162461bcd60e51b815260206004820152602c60248201527f4552433732313a206f70657261746f7220717565727920666f72206e6f6e657860448201526b34b9ba32b73a103a37b5b2b760a11b6064820152608401610790565b6000611a8783610c91565b9050806001600160a01b0316846001600160a01b03161480611ace57506001600160a01b0380821660009081526006602090815260408083209388168352929052205460ff165b80611af25750836001600160a01b0316611ae78461071b565b6001600160a01b0316145b949350505050565b826001600160a01b0316611b0d82610c91565b6001600160a01b031614611b895760405162461bcd60e51b815260206004820152602560248201527f4552433732313a207472616e736665722066726f6d20696e636f72726563742060448201527f6f776e65720000000000000000000000000000000000000000000000000000006064820152608401610790565b6001600160a01b038216611c045760405162461bcd60e51b8152602060048201526024808201527f4552433732313a207472616e7366657220746f20746865207a65726f2061646460448201527f72657373000000000000000000000000000000000000000000000000000000006064820152608401610790565b611c0f600082611995565b6001600160a01b0383166000908152600460205260408120805460019290611c38908490613122565b90915550506001600160a01b0382166000908152600460205260408120805460019290611c669084906130d7565b909155505060008181526003602052604080822080546001600160a01b0319166001600160a01b0386811691821790925591518493918716917fddf252ad1be2c89b69c2b068fc378daa952ba7f163c4a11628f55a4df523b3ef91a46108e2565b61140181336126ea565b6000828152602081815260408083206001600160a01b038516845290915290205460ff16610b4c576000828152602081815260408083206001600160a01b03851684529091529020805460ff19166001179055611d2b3390565b6001600160a01b0316816001600160a01b0316837f2f8788117e7eff1d82e926ec794901d17c78024a50270940304540a733656f0d60405160405180910390a45050565b6000828152602081815260408083206001600160a01b038516845290915290205460ff1615610b4c576000828152602081815260408083206001600160a01b0385168085529252808320805460ff1916905551339285917ff6391f5c32d9c69d2a47ea670b442974b53935d1edc7fd64eb21e047a839171b9190a45050565b6000611e1a7f9f2df0fed2c77648de5860a4cc508cd0818c85b8b8a1ab4ceeef8d981c8956a6336104df565b611e715760405162461bcd60e51b815260206004820152602260248201527f55736572206d7573742068617665206d696e74657220726f6c6520746f206d696044820152611b9d60f21b6064820152608401610790565b611e7f600780546001019055565b6000611e8a60075490565b600e80546001810182556000919091527fbb7b4a454dc3493923482f07822329ed19e8244eff582cc204f8554c3620c3fd018190559050611ecb8382612768565b6040805160a081018252600f548152600060208083018281528385018381526060850184815286518088018852601c81527f4c6f7474657279205469636b65742043616e6e6f7420526573656c6c0000000081860152608087019081528886526012855296909420855181559151600183015551600282018054945115156101000261ff00199215159290921661ffff1990951694909417179092559251805192939192611f7f9260038501920190612c19565b5091949350505050565b6000805b600c548110156118ea5782600c8281548110611fb957634e487b7160e01b600052603260045260246000fd5b90600052602060002001541415611fd4576001915050610649565b80611fde816131b7565b915050611f8d565b60006120127f9f2df0fed2c77648de5860a4cc508cd0818c85b8b8a1ab4ceeef8d981c8956a6336104df565b6120695760405162461bcd60e51b815260206004820152602260248201527f55736572206d7573742068617665206d696e74657220726f6c6520746f206d696044820152611b9d60f21b6064820152608401610790565b612077600780546001019055565b600061208260075490565b600d80546001810182556000919091527fd7b6990105719101dabeb77144f2a3385c8033acd3af97e9423a695e81ad1eb50181905590506120c38382612768565b6040805160a081018252600f5481526000602080830182815283850183815260016060860181815287518089018952601681527f57616974696e6720466f722046697273742053616c6500000000000000000000818701526080880190815289875260128652979095208651815592519083015551600282018054945115156101000261ff00199215159290921661ffff1990951694909417179092559251805192939192611f7f9260038501920190612c19565b816001600160a01b0316836001600160a01b031614156121da5760405162461bcd60e51b815260206004820152601960248201527f4552433732313a20617070726f766520746f2063616c6c6572000000000000006044820152606401610790565b6001600160a01b03838116600081815260066020908152604080832094871680845294825291829020805460ff191686151590811790915591519182527f17307eab39ab6107e8899845ad3d59bd9653f200f220920489ca2b5937696c31910160405180910390a3505050565b612252848484611afa565b61225e848484846128ab565b610f565760405162461bcd60e51b815260206004820152603260248201527f4552433732313a207472616e7366657220746f206e6f6e20455243373231526560448201527f63656976657220696d706c656d656e74657200000000000000000000000000006064820152608401610790565b60006122db8361147d565b51905060005b81811015610f56576001600160a01b038416600090815260136020526040902080548491908390811061232457634e487b7160e01b600052603260045260246000fd5b9060005260206000200154141561243d5760006123428260016130d7565b90505b828110156123f0576001600160a01b038516600090815260136020526040902080548290811061238557634e487b7160e01b600052603260045260246000fd5b60009182526020808320909101546001600160a01b0388168352601390915260409091206123b4600184613122565b815481106123d257634e487b7160e01b600052603260045260246000fd5b600091825260209091200155806123e8816131b7565b915050612345565b506001600160a01b038416600090815260136020526040902080548061242657634e487b7160e01b600052603160045260246000fd5b600190038181906000526020600020016000905590555b80612447816131b7565b9150506122e1565b600c5460005b818110156108e25782600c828154811061247f57634e487b7160e01b600052603260045260246000fd5b9060005260206000200154141561255657600061249d8260016130d7565b90505b8281101561251f57600c81815481106124c957634e487b7160e01b600052603260045260246000fd5b9060005260206000200154600c6001836124e39190613122565b8154811061250157634e487b7160e01b600052603260045260246000fd5b60009182526020909120015580612517816131b7565b9150506124a0565b50600c80548061253f57634e487b7160e01b600052603160045260246000fd5b600190038181906000526020600020016000905590555b80612560816131b7565b915050612455565b60608161258d57506040805180820190915260018152600360fc1b6020820152610649565b8160005b81156125b757806125a1816131b7565b91506125b09050600a836130ef565b9150612591565b60008167ffffffffffffffff8111156125e057634e487b7160e01b600052604160045260246000fd5b6040519080825280601f01601f19166020018201604052801561260a576020820181803683370190505b5090505b8415611af25761261f600183613122565b915061262c600a866131d2565b6126379060306130d7565b60f81b81838151811061265a57634e487b7160e01b600052603260045260246000fd5b60200101906001600160f81b031916908160001a90535061267c600a866130ef565b945061260e565b60006001600160e01b031982167f7965db0b00000000000000000000000000000000000000000000000000000000148061064657507f01ffc9a7000000000000000000000000000000000000000000000000000000006001600160e01b0319831614610646565b6000828152602081815260408083206001600160a01b038516845290915290205460ff16610b4c57612726816001600160a01b03166014612a0e565b612731836020612a0e565b604051602001612742929190612f89565b60408051601f198184030181529082905262461bcd60e51b82526107909160040161308a565b6001600160a01b0382166127be5760405162461bcd60e51b815260206004820181905260248201527f4552433732313a206d696e7420746f20746865207a65726f20616464726573736044820152606401610790565b6000818152600360205260409020546001600160a01b0316156128235760405162461bcd60e51b815260206004820152601c60248201527f4552433732313a20746f6b656e20616c7265616479206d696e746564000000006044820152606401610790565b6001600160a01b038216600090815260046020526040812080546001929061284c9084906130d7565b909155505060008181526003602052604080822080546001600160a01b0319166001600160a01b03861690811790915590518392907fddf252ad1be2c89b69c2b068fc378daa952ba7f163c4a11628f55a4df523b3ef908290a4610b4c565b60006001600160a01b0384163b15612a0357604051630a85bd0160e11b81526001600160a01b0385169063150b7a02906128ef90339089908890889060040161300a565b602060405180830381600087803b15801561290957600080fd5b505af1925050508015612939575060408051601f3d908101601f1916820190925261293691810190612ede565b60015b6129e9573d808015612967576040519150601f19603f3d011682016040523d82523d6000602084013e61296c565b606091505b5080516129e15760405162461bcd60e51b815260206004820152603260248201527f4552433732313a207472616e7366657220746f206e6f6e20455243373231526560448201527f63656976657220696d706c656d656e74657200000000000000000000000000006064820152608401610790565b805181602001fd5b6001600160e01b031916630a85bd0160e11b149050611af2565b506001949350505050565b60606000612a1d836002613103565b612a289060026130d7565b67ffffffffffffffff811115612a4e57634e487b7160e01b600052604160045260246000fd5b6040519080825280601f01601f191660200182016040528015612a78576020820181803683370190505b509050600360fc1b81600081518110612aa157634e487b7160e01b600052603260045260246000fd5b60200101906001600160f81b031916908160001a9053507f780000000000000000000000000000000000000000000000000000000000000081600181518110612afa57634e487b7160e01b600052603260045260246000fd5b60200101906001600160f81b031916908160001a9053506000612b1e846002613103565b612b299060016130d7565b90505b6001811115612bca577f303132333435363738396162636465660000000000000000000000000000000085600f1660108110612b7857634e487b7160e01b600052603260045260246000fd5b1a60f81b828281518110612b9c57634e487b7160e01b600052603260045260246000fd5b60200101906001600160f81b031916908160001a90535060049490941c93612bc381613165565b9050612b2c565b5083156118735760405162461bcd60e51b815260206004820181905260248201527f537472696e67733a20686578206c656e67746820696e73756666696369656e746044820152606401610790565b828054612c259061317c565b90600052602060002090601f016020900481019282612c475760008555612c8d565b82601f10612c6057805160ff1916838001178555612c8d565b82800160010185558215612c8d579182015b82811115612c8d578251825591602001919060010190612c72565b50612c99929150612c9d565b5090565b5b80821115612c995760008155600101612c9e565b80356001600160a01b038116811461064957600080fd5b600060208284031215612cda578081fd5b61187382612cb2565b60008060408385031215612cf5578081fd5b612cfe83612cb2565b9150612d0c60208401612cb2565b90509250929050565b600080600060608486031215612d29578081fd5b612d3284612cb2565b9250612d4060208501612cb2565b9150604084013590509250925092565b60008060008060808587031215612d65578081fd5b612d6e85612cb2565b9350612d7c60208601612cb2565b925060408501359150606085013567ffffffffffffffff80821115612d9f578283fd5b818701915087601f830112612db2578283fd5b813581811115612dc457612dc4613212565b604051601f8201601f19908116603f01168101908382118183101715612dec57612dec613212565b816040528281528a6020848701011115612e04578586fd5b82602086016020830137918201602001949094529598949750929550505050565b60008060408385031215612e37578182fd5b612e4083612cb2565b915060208301358015158114612e54578182fd5b809150509250929050565b60008060408385031215612e71578182fd5b612e7a83612cb2565b946020939093013593505050565b600060208284031215612e99578081fd5b5035919050565b60008060408385031215612eb2578182fd5b82359150612d0c60208401612cb2565b600060208284031215612ed3578081fd5b813561187381613228565b600060208284031215612eef578081fd5b815161187381613228565b600080600060608486031215612f0e578283fd5b8335925060208401359150612f2560408501612cb2565b90509250925092565b60008151808452612f46816020860160208601613139565b601f01601f19169290920160200192915050565b60008351612f6c818460208801613139565b835190830190612f80818360208801613139565b01949350505050565b60007f416363657373436f6e74726f6c3a206163636f756e742000000000000000000082528351612fc1816017850160208801613139565b7f206973206d697373696e6720726f6c65200000000000000000000000000000006017918401918201528351612ffe816028840160208801613139565b01602801949350505050565b60006001600160a01b0380871683528086166020840152508360408301526080606083015261303c6080830184612f2e565b9695505050505050565b6020808252825182820181905260009190848201906040850190845b8181101561307e57835183529284019291840191600101613062565b50909695505050505050565b6000602082526118736020830184612f2e565b60008682528560208301528415156040830152831515606083015260a060808301526130cc60a0830184612f2e565b979650505050505050565b600082198211156130ea576130ea6131e6565b500190565b6000826130fe576130fe6131fc565b500490565b600081600019048311821515161561311d5761311d6131e6565b500290565b600082821015613134576131346131e6565b500390565b60005b8381101561315457818101518382015260200161313c565b83811115610f565750506000910152565b600081613174576131746131e6565b506000190190565b600181811c9082168061319057607f821691505b602082108114156131b157634e487b7160e01b600052602260045260246000fd5b50919050565b60006000198214156131cb576131cb6131e6565b5060010190565b6000826131e1576131e16131fc565b500690565b634e487b7160e01b600052601160045260246000fd5b634e487b7160e01b600052601260045260246000fd5b634e487b7160e01b600052604160045260246000fd5b6001600160e01b03198116811461140157600080fdfea2646970667358221220e6ac29087e1e25a09f645dede4645769ab9ee71487950d48de33c680a52d5be064736f6c6343000803003360806040523480156200001157600080fd5b5060405162001c0638038062001c06833981016040819052620000349162000123565b600080546001600160a01b038085166001600160a01b0319928316179092556001805492841692909116821790556040805163016e0aaf60e31b81529051630b70557891600480820192602092909190829003018186803b1580156200009957600080fd5b505afa158015620000ae573d6000803e3d6000fd5b505050506040513d601f19601f82011682018060405250810190620000d49190620000fd565b600280546001600160a01b0319166001600160a01b0392909216919091179055506200017a9050565b6000602082840312156200010f578081fd5b81516200011c8162000161565b9392505050565b6000806040838503121562000136578081fd5b8251620001438162000161565b6020840151909250620001568162000161565b809150509250929050565b6001600160a01b03811681146200017757600080fd5b50565b611a7c806200018a6000396000f3fe608060405234801561001057600080fd5b50600436106100885760003560e01c80638b5b9ccc1161005b5780638b5b9ccc146100e5578063e97dcb62146100fa578063f206c7aa14610102578063f71d96cb1461010a57610088565b806321846c761461008d5780632eeac4c3146100975780634b67b25f146100aa57806368dc162e146100d2575b600080fd5b610095610135565b005b6100956100a53660046118a0565b6104aa565b6100bd6100b8366004611781565b61091b565b60405190151581526020015b60405180910390f35b6100956100e0366004611781565b610996565b6100ed610f3a565b6040516100c991906118d0565b610095610f9c565b61009561129c565b61011d6101183660046118a0565b611723565b6040516001600160a01b0390911681526020016100c9565b600154604051632d8cb27960e21b81523360048201819052916002916001600160a01b039091169063b632c9e49060240160006040518083038186803b15801561017e57600080fd5b505afa158015610192573d6000803e3d6000fd5b505050506040513d6000823e601f3d908101601f191682016040526101ba91908101906117c0565b511061020d5760405162461bcd60e51b815260206004820152601e60248201527f43616e6e6f7420627579206d6f7265207468616e2032207469636b657473000060448201526064015b60405180910390fd5b6000546001546040805163043ddbd760e51b815290516001600160a01b03938416936323b872dd938693309391909216916387bb7ae0916004808301926020929190829003018186803b15801561026357600080fd5b505afa158015610277573d6000803e3d6000fd5b505050506040513d601f19601f8201168201806040525081019061029b91906118b8565b6040516001600160e01b031960e086901b1681526001600160a01b0393841660048201529290911660248301526044820152606401602060405180830381600087803b1580156102ea57600080fd5b505af11580156102fe573d6000803e3d6000fd5b505050506040513d601f19601f820116820180604052508101906103229190611880565b506000546002546001546040805163043ddbd760e51b815290516001600160a01b039485169463a9059cbb9481169316916387bb7ae0916004808301926020929190829003018186803b15801561037857600080fd5b505afa15801561038c573d6000803e3d6000fd5b505050506040513d601f19601f820116820180604052508101906103b091906118b8565b6040516001600160e01b031960e085901b1681526001600160a01b0390921660048301526024820152604401602060405180830381600087803b1580156103f657600080fd5b505af115801561040a573d6000803e3d6000fd5b505050506040513d601f19601f8201168201806040525081019061042e9190611880565b506001546040517f6afadefb0000000000000000000000000000000000000000000000000000000081526001600160a01b03838116600483015290911690636afadefb90602401600060405180830381600087803b15801561048f57600080fd5b505af11580156104a3573d6000803e3d6000fd5b5050505050565b6001546040517f6352211e000000000000000000000000000000000000000000000000000000008152600481018390526000916001600160a01b031690636352211e9060240160206040518083038186803b15801561050857600080fd5b505afa15801561051c573d6000803e3d6000fd5b505050506040513d601f19601f8201168201806040525081019061054091906117a4565b6001546040517f569e35db0000000000000000000000000000000000000000000000000000000081526004810185905291925033916000916001600160a01b03169063569e35db9060240160206040518083038186803b1580156105a357600080fd5b505afa1580156105b7573d6000803e3d6000fd5b505050506040513d601f19601f820116820180604052508101906105db91906118b8565b9050600060646105ec83600a61198a565b6105f69190611976565b6000549091506001600160a01b03166323b872dd843061061685876119a9565b6040516001600160e01b031960e086901b1681526001600160a01b0393841660048201529290911660248301526044820152606401602060405180830381600087803b15801561066557600080fd5b505af1158015610679573d6000803e3d6000fd5b505050506040513d601f19601f8201168201806040525081019061069d9190611880565b506000546001600160a01b031663a9059cbb856106ba84866119a9565b6040516001600160e01b031960e085901b1681526001600160a01b0390921660048301526024820152604401602060405180830381600087803b15801561070057600080fd5b505af1158015610714573d6000803e3d6000fd5b505050506040513d601f19601f820116820180604052508101906107389190611880565b506000546040516323b872dd60e01b81526001600160a01b03858116600483015230602483015260448201849052909116906323b872dd90606401602060405180830381600087803b15801561078d57600080fd5b505af11580156107a1573d6000803e3d6000fd5b505050506040513d601f19601f820116820180604052508101906107c59190611880565b5060005460025460405163a9059cbb60e01b81526001600160a01b0391821660048201526024810184905291169063a9059cbb90604401602060405180830381600087803b15801561081657600080fd5b505af115801561082a573d6000803e3d6000fd5b505050506040513d601f19601f8201168201806040525081019061084e9190611880565b506001546040517fc83b45900000000000000000000000000000000000000000000000000000000081526001600160a01b038581166004830152602482018890529091169063c83b459090604401600060405180830381600087803b1580156108b657600080fd5b505af11580156108ca573d6000803e3d6000fd5b5050604080516001600160a01b038881168252602082018a9052871693507f22e3ae3a20c49dce14046235895c7a3ffc0a6a5f3577c370177ad45fa619485d92500160405180910390a25050505050565b6000805b60035481101561098b57826001600160a01b03166003828154811061095457634e487b7160e01b600052603260045260246000fd5b6000918252602090912001546001600160a01b03161415610979576001915050610991565b80610983816119c0565b91505061091f565b50600090505b919050565b336109a08161091b565b6109ec5760405162461bcd60e51b815260206004820152601460248201527f4f6e6c792066697273742074696d65206a6f696e0000000000000000000000006044820152606401610204565b600160009054906101000a90046001600160a01b03166001600160a01b0316630b7055786040518163ffffffff1660e01b815260040160206040518083038186803b158015610a3a57600080fd5b505afa158015610a4e573d6000803e3d6000fd5b505050506040513d601f19601f82011682018060405250810190610a7291906117a4565b6001600160a01b0316826001600160a01b0316630b7055786040518163ffffffff1660e01b815260040160206040518083038186803b158015610ab457600080fd5b505afa158015610ac8573d6000803e3d6000fd5b505050506040513d601f19601f82011682018060405250810190610aec91906117a4565b6001600160a01b031614610b685760405162461bcd60e51b815260206004820152603160248201527f506c61796572206d757374206861766520706172746963697061746520696e2060448201527f61637469766974696573206265666f72650000000000000000000000000000006064820152608401610204565b6040517fd45be3ae0000000000000000000000000000000000000000000000000000000081526001600160a01b03828116600483015283169063d45be3ae9060240160206040518083038186803b158015610bc257600080fd5b505afa158015610bd6573d6000803e3d6000fd5b505050506040513d601f19601f82011682018060405250810190610bfa9190611880565b610c465760405162461bcd60e51b815260206004820152601f60248201527f506c61796572206d75737420686f6c64207469636b657473206265666f7265006044820152606401610204565b600154604051632d8cb27960e21b81526001600160a01b038381166004830152600292169063b632c9e49060240160006040518083038186803b158015610c8c57600080fd5b505afa158015610ca0573d6000803e3d6000fd5b505050506040513d6000823e601f3d908101601f19168201604052610cc891908101906117c0565b5110610d225760405162461bcd60e51b8152602060048201526024808201527f506c61796572206d75737420686f6c64206c657373207468616e2032207469636044820152636b65747360e01b6064820152608401610204565b60006064600160009054906101000a90046001600160a01b03166001600160a01b03166387bb7ae06040518163ffffffff1660e01b815260040160206040518083038186803b158015610d7457600080fd5b505afa158015610d88573d6000803e3d6000fd5b505050506040513d601f19601f82011682018060405250810190610dac91906118b8565b610db790600a61198a565b610dc19190611976565b6000546040516323b872dd60e01b81526001600160a01b038581166004830152306024830152604482018490529293509116906323b872dd90606401602060405180830381600087803b158015610e1757600080fd5b505af1158015610e2b573d6000803e3d6000fd5b505050506040513d601f19601f82011682018060405250810190610e4f9190611880565b5060005460025460405163a9059cbb60e01b81526001600160a01b0391821660048201526024810184905291169063a9059cbb90604401602060405180830381600087803b158015610ea057600080fd5b505af1158015610eb4573d6000803e3d6000fd5b505050506040513d601f19601f82011682018060405250810190610ed89190611880565b5050600380546001810182556000919091527fc2575a0e9e593c00f959f8c92f12db2869c3395a3b0502d05e2516446f71f85b01805473ffffffffffffffffffffffffffffffffffffffff19166001600160a01b039290921691909117905550565b60606003805480602002602001604051908101604052809291908181526020018280548015610f9257602002820191906000526020600020905b81546001600160a01b03168152600190910190602001808311610f74575b5050505050905090565b600154604051632d8cb27960e21b81523360048201819052916002916001600160a01b039091169063b632c9e49060240160006040518083038186803b158015610fe557600080fd5b505afa158015610ff9573d6000803e3d6000fd5b505050506040513d6000823e601f3d908101601f1916820160405261102191908101906117c0565b511061107b5760405162461bcd60e51b8152602060048201526024808201527f506c61796572206d75737420686f6c64206c657373207468616e2032207469636044820152636b65747360e01b6064820152608401610204565b6110848161091b565b6112995760006064600160009054906101000a90046001600160a01b03166001600160a01b03166387bb7ae06040518163ffffffff1660e01b815260040160206040518083038186803b1580156110da57600080fd5b505afa1580156110ee573d6000803e3d6000fd5b505050506040513d601f19601f8201168201806040525081019061111291906118b8565b61111d90600a61198a565b6111279190611976565b6000546040516323b872dd60e01b81526001600160a01b038581166004830152306024830152604482018490529293509116906323b872dd90606401602060405180830381600087803b15801561117d57600080fd5b505af1158015611191573d6000803e3d6000fd5b505050506040513d601f19601f820116820180604052508101906111b59190611880565b5060005460025460405163a9059cbb60e01b81526001600160a01b0391821660048201526024810184905291169063a9059cbb90604401602060405180830381600087803b15801561120657600080fd5b505af115801561121a573d6000803e3d6000fd5b505050506040513d601f19601f8201168201806040525081019061123e9190611880565b5050600380546001810182556000919091527fc2575a0e9e593c00f959f8c92f12db2869c3395a3b0502d05e2516446f71f85b01805473ffffffffffffffffffffffffffffffffffffffff19166001600160a01b0383161790555b50565b6002546001600160a01b031633146112f65760405162461bcd60e51b815260206004820152601660248201527f4f6e6c79204f7267616e697a6572204c6f7474657279000000000000000000006044820152606401610204565b600154604080517f0cdf1df700000000000000000000000000000000000000000000000000000000815290516000926001600160a01b031691630cdf1df7916004808301926020929190829003018186803b15801561135457600080fd5b505afa158015611368573d6000803e3d6000fd5b505050506040513d601f19601f8201168201806040525081019061138c91906118b8565b6003549091508082111561139e578091505b60005b8281101561171e576003546000906113b761174d565b6113c191906119db565b90506000600382815481106113e657634e487b7160e01b600052603260045260246000fd5b600091825260209091200154600380546001600160a01b03909216925090611410906001906119a9565b8154811061142e57634e487b7160e01b600052603260045260246000fd5b600091825260209091200154600380546001600160a01b03909216918490811061146857634e487b7160e01b600052603260045260246000fd5b9060005260206000200160006101000a8154816001600160a01b0302191690836001600160a01b0316021790555060038054806114b557634e487b7160e01b600052603160045260246000fd5b600082815260208082206000199084018101805473ffffffffffffffffffffffffffffffffffffffff191690559092019092556001546040805163043ddbd760e51b815290516064936001600160a01b03909316926387bb7ae09260048082019391829003018186803b15801561152b57600080fd5b505afa15801561153f573d6000803e3d6000fd5b505050506040513d601f19601f8201168201806040525081019061156391906118b8565b61156e90605a61198a565b6115789190611976565b6000546040516323b872dd60e01b81526001600160a01b038581166004830152306024830152604482018490529293509116906323b872dd90606401602060405180830381600087803b1580156115ce57600080fd5b505af11580156115e2573d6000803e3d6000fd5b505050506040513d601f19601f820116820180604052508101906116069190611880565b5060005460025460405163a9059cbb60e01b81526001600160a01b0391821660048201526024810184905291169063a9059cbb90604401602060405180830381600087803b15801561165757600080fd5b505af115801561166b573d6000803e3d6000fd5b505050506040513d601f19601f8201168201806040525081019061168f9190611880565b506001546040517f99411bee0000000000000000000000000000000000000000000000000000000081526001600160a01b038481166004830152909116906399411bee90602401600060405180830381600087803b1580156116f057600080fd5b505af1158015611704573d6000803e3d6000fd5b505050505050508080611716906119c0565b9150506113a1565b505050565b6003818154811061173357600080fd5b6000918252602090912001546001600160a01b0316905081565b600042600360405160200161176392919061191d565b6040516020818303038152906040528051906020012060001c905090565b600060208284031215611792578081fd5b813561179d81611a31565b9392505050565b6000602082840312156117b5578081fd5b815161179d81611a31565b600060208083850312156117d2578182fd5b825167ffffffffffffffff808211156117e9578384fd5b818501915085601f8301126117fc578384fd5b81518181111561180e5761180e611a1b565b8060051b604051601f19603f8301168101818110858211171561183357611833611a1b565b604052828152858101935084860182860187018a1015611851578788fd5b8795505b83861015611873578051855260019590950194938601938601611855565b5098975050505050505050565b600060208284031215611891578081fd5b8151801515811461179d578182fd5b6000602082840312156118b1578081fd5b5035919050565b6000602082840312156118c9578081fd5b5051919050565b6020808252825182820181905260009190848201906040850190845b818110156119115783516001600160a01b0316835292840192918401916001016118ec565b50909695505050505050565b60006040820184835260206040818501528185548084526060860191508685528285209350845b818110156119695784546001600160a01b031683526001948501949284019201611944565b5090979650505050505050565b60008261198557611985611a05565b500490565b60008160001904831182151516156119a4576119a46119ef565b500290565b6000828210156119bb576119bb6119ef565b500390565b60006000198214156119d4576119d46119ef565b5060010190565b6000826119ea576119ea611a05565b500690565b634e487b7160e01b600052601160045260246000fd5b634e487b7160e01b600052601260045260246000fd5b634e487b7160e01b600052604160045260246000fd5b6001600160a01b038116811461129957600080fdfea26469706673582212205824f42156322a11d2ce001579e5906af89a99cccaa480bc02fdcda77ce566dd64736f6c63430008030033a2646970667358221220aa5bb083fc9fd81d065f42f869000651d7799b2bb42a55967e61101957e37e7764736f6c63430008030033",
  "linkReferences": {},
  "deployedLinkReferences": {}
}