{
  "_format": "hh-sol-artifact-1",
  "contractName": "TicketMarket",
  "sourceName": "contracts/TicketMarket.sol",
  "abi": [
    {
      "inputs": [
        {
          "internalType": "contract GogoToken",
          "name": "token",
          "type": "address"
        },
        {
          "internalType": "contract TicketNFT",
          "name": "festival",
          "type": "address"
        }
      ],
      "stateMutability": "nonpayable",
      "type": "constructor"
    },
    {
      "anonymous": false,
      "inputs": [
        {
          "indexed": true,
          "internalType": "address",
          "name": "buyer",
          "type": "address"
        },
        {
          "indexed": false,
          "internalType": "address",
          "name": "seller",
          "type": "address"
        },
        {
          "indexed": false,
          "internalType": "uint256",
          "name": "ticketId",
          "type": "uint256"
        }
      ],
      "name": "Purchase",
      "type": "event"
    },
    {
      "inputs": [],
      "name": "enter",
      "outputs": [],
      "stateMutability": "nonpayable",
      "type": "function"
    },
    {
      "inputs": [
        {
          "internalType": "contract TicketNFT",
          "name": "oldfestival",
          "type": "address"
        }
      ],
      "name": "fansOnlyEnter",
      "outputs": [],
      "stateMutability": "nonpayable",
      "type": "function"
    },
    {
      "inputs": [],
      "name": "getPlayers",
      "outputs": [
        {
          "internalType": "address[]",
          "name": "",
          "type": "address[]"
        }
      ],
      "stateMutability": "view",
      "type": "function"
    },
    {
      "inputs": [
        {
          "internalType": "address",
          "name": "player",
          "type": "address"
        }
      ],
      "name": "isPlayerExist",
      "outputs": [
        {
          "internalType": "bool",
          "name": "",
          "type": "bool"
        }
      ],
      "stateMutability": "view",
      "type": "function"
    },
    {
      "inputs": [],
      "name": "lotteryTicket",
      "outputs": [],
      "stateMutability": "nonpayable",
      "type": "function"
    },
    {
      "inputs": [
        {
          "internalType": "uint256",
          "name": "",
          "type": "uint256"
        }
      ],
      "name": "players",
      "outputs": [
        {
          "internalType": "address",
          "name": "",
          "type": "address"
        }
      ],
      "stateMutability": "view",
      "type": "function"
    },
    {
      "inputs": [],
      "name": "purchaseTicket",
      "outputs": [],
      "stateMutability": "nonpayable",
      "type": "function"
    },
    {
      "inputs": [
        {
          "internalType": "uint256",
          "name": "ticketId",
          "type": "uint256"
        }
      ],
      "name": "secondaryPurchase",
      "outputs": [],
      "stateMutability": "nonpayable",
      "type": "function"
    }
  ],
  "bytecode": "0x60806040523480156200001157600080fd5b5060405162001c0638038062001c06833981016040819052620000349162000123565b600080546001600160a01b038085166001600160a01b0319928316179092556001805492841692909116821790556040805163016e0aaf60e31b81529051630b70557891600480820192602092909190829003018186803b1580156200009957600080fd5b505afa158015620000ae573d6000803e3d6000fd5b505050506040513d601f19601f82011682018060405250810190620000d49190620000fd565b600280546001600160a01b0319166001600160a01b0392909216919091179055506200017a9050565b6000602082840312156200010f578081fd5b81516200011c8162000161565b9392505050565b6000806040838503121562000136578081fd5b8251620001438162000161565b6020840151909250620001568162000161565b809150509250929050565b6001600160a01b03811681146200017757600080fd5b50565b611a7c806200018a6000396000f3fe608060405234801561001057600080fd5b50600436106100885760003560e01c80638b5b9ccc1161005b5780638b5b9ccc146100e5578063e97dcb62146100fa578063f206c7aa14610102578063f71d96cb1461010a57610088565b806321846c761461008d5780632eeac4c3146100975780634b67b25f146100aa57806368dc162e146100d2575b600080fd5b610095610135565b005b6100956100a53660046118a0565b6104aa565b6100bd6100b8366004611781565b61091b565b60405190151581526020015b60405180910390f35b6100956100e0366004611781565b610996565b6100ed610f3a565b6040516100c991906118d0565b610095610f9c565b61009561129c565b61011d6101183660046118a0565b611723565b6040516001600160a01b0390911681526020016100c9565b600154604051632d8cb27960e21b81523360048201819052916002916001600160a01b039091169063b632c9e49060240160006040518083038186803b15801561017e57600080fd5b505afa158015610192573d6000803e3d6000fd5b505050506040513d6000823e601f3d908101601f191682016040526101ba91908101906117c0565b511061020d5760405162461bcd60e51b815260206004820152601e60248201527f43616e6e6f7420627579206d6f7265207468616e2032207469636b657473000060448201526064015b60405180910390fd5b6000546001546040805163043ddbd760e51b815290516001600160a01b03938416936323b872dd938693309391909216916387bb7ae0916004808301926020929190829003018186803b15801561026357600080fd5b505afa158015610277573d6000803e3d6000fd5b505050506040513d601f19601f8201168201806040525081019061029b91906118b8565b6040516001600160e01b031960e086901b1681526001600160a01b0393841660048201529290911660248301526044820152606401602060405180830381600087803b1580156102ea57600080fd5b505af11580156102fe573d6000803e3d6000fd5b505050506040513d601f19601f820116820180604052508101906103229190611880565b506000546002546001546040805163043ddbd760e51b815290516001600160a01b039485169463a9059cbb9481169316916387bb7ae0916004808301926020929190829003018186803b15801561037857600080fd5b505afa15801561038c573d6000803e3d6000fd5b505050506040513d601f19601f820116820180604052508101906103b091906118b8565b6040516001600160e01b031960e085901b1681526001600160a01b0390921660048301526024820152604401602060405180830381600087803b1580156103f657600080fd5b505af115801561040a573d6000803e3d6000fd5b505050506040513d601f19601f8201168201806040525081019061042e9190611880565b506001546040517f6afadefb0000000000000000000000000000000000000000000000000000000081526001600160a01b03838116600483015290911690636afadefb90602401600060405180830381600087803b15801561048f57600080fd5b505af11580156104a3573d6000803e3d6000fd5b5050505050565b6001546040517f6352211e000000000000000000000000000000000000000000000000000000008152600481018390526000916001600160a01b031690636352211e9060240160206040518083038186803b15801561050857600080fd5b505afa15801561051c573d6000803e3d6000fd5b505050506040513d601f19601f8201168201806040525081019061054091906117a4565b6001546040517f569e35db0000000000000000000000000000000000000000000000000000000081526004810185905291925033916000916001600160a01b03169063569e35db9060240160206040518083038186803b1580156105a357600080fd5b505afa1580156105b7573d6000803e3d6000fd5b505050506040513d601f19601f820116820180604052508101906105db91906118b8565b9050600060646105ec83600a61198a565b6105f69190611976565b6000549091506001600160a01b03166323b872dd843061061685876119a9565b6040516001600160e01b031960e086901b1681526001600160a01b0393841660048201529290911660248301526044820152606401602060405180830381600087803b15801561066557600080fd5b505af1158015610679573d6000803e3d6000fd5b505050506040513d601f19601f8201168201806040525081019061069d9190611880565b506000546001600160a01b031663a9059cbb856106ba84866119a9565b6040516001600160e01b031960e085901b1681526001600160a01b0390921660048301526024820152604401602060405180830381600087803b15801561070057600080fd5b505af1158015610714573d6000803e3d6000fd5b505050506040513d601f19601f820116820180604052508101906107389190611880565b506000546040516323b872dd60e01b81526001600160a01b03858116600483015230602483015260448201849052909116906323b872dd90606401602060405180830381600087803b15801561078d57600080fd5b505af11580156107a1573d6000803e3d6000fd5b505050506040513d601f19601f820116820180604052508101906107c59190611880565b5060005460025460405163a9059cbb60e01b81526001600160a01b0391821660048201526024810184905291169063a9059cbb90604401602060405180830381600087803b15801561081657600080fd5b505af115801561082a573d6000803e3d6000fd5b505050506040513d601f19601f8201168201806040525081019061084e9190611880565b506001546040517fc83b45900000000000000000000000000000000000000000000000000000000081526001600160a01b038581166004830152602482018890529091169063c83b459090604401600060405180830381600087803b1580156108b657600080fd5b505af11580156108ca573d6000803e3d6000fd5b5050604080516001600160a01b038881168252602082018a9052871693507f22e3ae3a20c49dce14046235895c7a3ffc0a6a5f3577c370177ad45fa619485d92500160405180910390a25050505050565b6000805b60035481101561098b57826001600160a01b03166003828154811061095457634e487b7160e01b600052603260045260246000fd5b6000918252602090912001546001600160a01b03161415610979576001915050610991565b80610983816119c0565b91505061091f565b50600090505b919050565b336109a08161091b565b6109ec5760405162461bcd60e51b815260206004820152601460248201527f4f6e6c792066697273742074696d65206a6f696e0000000000000000000000006044820152606401610204565b600160009054906101000a90046001600160a01b03166001600160a01b0316630b7055786040518163ffffffff1660e01b815260040160206040518083038186803b158015610a3a57600080fd5b505afa158015610a4e573d6000803e3d6000fd5b505050506040513d601f19601f82011682018060405250810190610a7291906117a4565b6001600160a01b0316826001600160a01b0316630b7055786040518163ffffffff1660e01b815260040160206040518083038186803b158015610ab457600080fd5b505afa158015610ac8573d6000803e3d6000fd5b505050506040513d601f19601f82011682018060405250810190610aec91906117a4565b6001600160a01b031614610b685760405162461bcd60e51b815260206004820152603160248201527f506c61796572206d757374206861766520706172746963697061746520696e2060448201527f61637469766974696573206265666f72650000000000000000000000000000006064820152608401610204565b6040517fd45be3ae0000000000000000000000000000000000000000000000000000000081526001600160a01b03828116600483015283169063d45be3ae9060240160206040518083038186803b158015610bc257600080fd5b505afa158015610bd6573d6000803e3d6000fd5b505050506040513d601f19601f82011682018060405250810190610bfa9190611880565b610c465760405162461bcd60e51b815260206004820152601f60248201527f506c61796572206d75737420686f6c64207469636b657473206265666f7265006044820152606401610204565b600154604051632d8cb27960e21b81526001600160a01b038381166004830152600292169063b632c9e49060240160006040518083038186803b158015610c8c57600080fd5b505afa158015610ca0573d6000803e3d6000fd5b505050506040513d6000823e601f3d908101601f19168201604052610cc891908101906117c0565b5110610d225760405162461bcd60e51b8152602060048201526024808201527f506c61796572206d75737420686f6c64206c657373207468616e2032207469636044820152636b65747360e01b6064820152608401610204565b60006064600160009054906101000a90046001600160a01b03166001600160a01b03166387bb7ae06040518163ffffffff1660e01b815260040160206040518083038186803b158015610d7457600080fd5b505afa158015610d88573d6000803e3d6000fd5b505050506040513d601f19601f82011682018060405250810190610dac91906118b8565b610db790600a61198a565b610dc19190611976565b6000546040516323b872dd60e01b81526001600160a01b038581166004830152306024830152604482018490529293509116906323b872dd90606401602060405180830381600087803b158015610e1757600080fd5b505af1158015610e2b573d6000803e3d6000fd5b505050506040513d601f19601f82011682018060405250810190610e4f9190611880565b5060005460025460405163a9059cbb60e01b81526001600160a01b0391821660048201526024810184905291169063a9059cbb90604401602060405180830381600087803b158015610ea057600080fd5b505af1158015610eb4573d6000803e3d6000fd5b505050506040513d601f19601f82011682018060405250810190610ed89190611880565b5050600380546001810182556000919091527fc2575a0e9e593c00f959f8c92f12db2869c3395a3b0502d05e2516446f71f85b01805473ffffffffffffffffffffffffffffffffffffffff19166001600160a01b039290921691909117905550565b60606003805480602002602001604051908101604052809291908181526020018280548015610f9257602002820191906000526020600020905b81546001600160a01b03168152600190910190602001808311610f74575b5050505050905090565b600154604051632d8cb27960e21b81523360048201819052916002916001600160a01b039091169063b632c9e49060240160006040518083038186803b158015610fe557600080fd5b505afa158015610ff9573d6000803e3d6000fd5b505050506040513d6000823e601f3d908101601f1916820160405261102191908101906117c0565b511061107b5760405162461bcd60e51b8152602060048201526024808201527f506c61796572206d75737420686f6c64206c657373207468616e2032207469636044820152636b65747360e01b6064820152608401610204565b6110848161091b565b6112995760006064600160009054906101000a90046001600160a01b03166001600160a01b03166387bb7ae06040518163ffffffff1660e01b815260040160206040518083038186803b1580156110da57600080fd5b505afa1580156110ee573d6000803e3d6000fd5b505050506040513d601f19601f8201168201806040525081019061111291906118b8565b61111d90600a61198a565b6111279190611976565b6000546040516323b872dd60e01b81526001600160a01b038581166004830152306024830152604482018490529293509116906323b872dd90606401602060405180830381600087803b15801561117d57600080fd5b505af1158015611191573d6000803e3d6000fd5b505050506040513d601f19601f820116820180604052508101906111b59190611880565b5060005460025460405163a9059cbb60e01b81526001600160a01b0391821660048201526024810184905291169063a9059cbb90604401602060405180830381600087803b15801561120657600080fd5b505af115801561121a573d6000803e3d6000fd5b505050506040513d601f19601f8201168201806040525081019061123e9190611880565b5050600380546001810182556000919091527fc2575a0e9e593c00f959f8c92f12db2869c3395a3b0502d05e2516446f71f85b01805473ffffffffffffffffffffffffffffffffffffffff19166001600160a01b0383161790555b50565b6002546001600160a01b031633146112f65760405162461bcd60e51b815260206004820152601660248201527f4f6e6c79204f7267616e697a6572204c6f7474657279000000000000000000006044820152606401610204565b600154604080517f0cdf1df700000000000000000000000000000000000000000000000000000000815290516000926001600160a01b031691630cdf1df7916004808301926020929190829003018186803b15801561135457600080fd5b505afa158015611368573d6000803e3d6000fd5b505050506040513d601f19601f8201168201806040525081019061138c91906118b8565b6003549091508082111561139e578091505b60005b8281101561171e576003546000906113b761174d565b6113c191906119db565b90506000600382815481106113e657634e487b7160e01b600052603260045260246000fd5b600091825260209091200154600380546001600160a01b03909216925090611410906001906119a9565b8154811061142e57634e487b7160e01b600052603260045260246000fd5b600091825260209091200154600380546001600160a01b03909216918490811061146857634e487b7160e01b600052603260045260246000fd5b9060005260206000200160006101000a8154816001600160a01b0302191690836001600160a01b0316021790555060038054806114b557634e487b7160e01b600052603160045260246000fd5b600082815260208082206000199084018101805473ffffffffffffffffffffffffffffffffffffffff191690559092019092556001546040805163043ddbd760e51b815290516064936001600160a01b03909316926387bb7ae09260048082019391829003018186803b15801561152b57600080fd5b505afa15801561153f573d6000803e3d6000fd5b505050506040513d601f19601f8201168201806040525081019061156391906118b8565b61156e90605a61198a565b6115789190611976565b6000546040516323b872dd60e01b81526001600160a01b038581166004830152306024830152604482018490529293509116906323b872dd90606401602060405180830381600087803b1580156115ce57600080fd5b505af11580156115e2573d6000803e3d6000fd5b505050506040513d601f19601f820116820180604052508101906116069190611880565b5060005460025460405163a9059cbb60e01b81526001600160a01b0391821660048201526024810184905291169063a9059cbb90604401602060405180830381600087803b15801561165757600080fd5b505af115801561166b573d6000803e3d6000fd5b505050506040513d601f19601f8201168201806040525081019061168f9190611880565b506001546040517f99411bee0000000000000000000000000000000000000000000000000000000081526001600160a01b038481166004830152909116906399411bee90602401600060405180830381600087803b1580156116f057600080fd5b505af1158015611704573d6000803e3d6000fd5b505050505050508080611716906119c0565b9150506113a1565b505050565b6003818154811061173357600080fd5b6000918252602090912001546001600160a01b0316905081565b600042600360405160200161176392919061191d565b6040516020818303038152906040528051906020012060001c905090565b600060208284031215611792578081fd5b813561179d81611a31565b9392505050565b6000602082840312156117b5578081fd5b815161179d81611a31565b600060208083850312156117d2578182fd5b825167ffffffffffffffff808211156117e9578384fd5b818501915085601f8301126117fc578384fd5b81518181111561180e5761180e611a1b565b8060051b604051601f19603f8301168101818110858211171561183357611833611a1b565b604052828152858101935084860182860187018a1015611851578788fd5b8795505b83861015611873578051855260019590950194938601938601611855565b5098975050505050505050565b600060208284031215611891578081fd5b8151801515811461179d578182fd5b6000602082840312156118b1578081fd5b5035919050565b6000602082840312156118c9578081fd5b5051919050565b6020808252825182820181905260009190848201906040850190845b818110156119115783516001600160a01b0316835292840192918401916001016118ec565b50909695505050505050565b60006040820184835260206040818501528185548084526060860191508685528285209350845b818110156119695784546001600160a01b031683526001948501949284019201611944565b5090979650505050505050565b60008261198557611985611a05565b500490565b60008160001904831182151516156119a4576119a46119ef565b500290565b6000828210156119bb576119bb6119ef565b500390565b60006000198214156119d4576119d46119ef565b5060010190565b6000826119ea576119ea611a05565b500690565b634e487b7160e01b600052601160045260246000fd5b634e487b7160e01b600052601260045260246000fd5b634e487b7160e01b600052604160045260246000fd5b6001600160a01b038116811461129957600080fdfea26469706673582212205824f42156322a11d2ce001579e5906af89a99cccaa480bc02fdcda77ce566dd64736f6c63430008030033",
  "linkReferences": {},
  "deployedLinkReferences": {}
}