{
  "_format": "hh-sol-artifact-1",
  "contractName": "TokenReceiver",
  "sourceName": "contracts/TokenReceiver.sol",
  "abi": [
    {
      "inputs": [
        {
          "internalType": "contract IERC20",
          "name": "token",
          "type": "address"
        }
      ],
      "stateMutability": "nonpayable",
      "type": "constructor"
    },
    {
      "anonymous": false,
      "inputs": [
        {
          "indexed": false,
          "internalType": "address",
          "name": "from",
          "type": "address"
        }
      ],
      "name": "DoneStuff",
      "type": "event"
    },
    {
      "inputs": [],
      "name": "doStuff",
      "outputs": [],
      "stateMutability": "nonpayable",
      "type": "function"
    }
  ],
  "bytecode": "0x608060405234801561001057600080fd5b5060405161022738038061022783398101604081905261002f91610054565b600080546001600160a01b0319166001600160a01b0392909216919091179055610082565b600060208284031215610065578081fd5b81516001600160a01b038116811461007b578182fd5b9392505050565b610196806100916000396000f3fe608060405234801561001057600080fd5b506004361061002b5760003560e01c8063874f33a114610030575b600080fd5b61003861003a565b005b6000546040517f23b872dd00000000000000000000000000000000000000000000000000000000815233600482018190523060248301526103e860448301529173ffffffffffffffffffffffffffffffffffffffff16906323b872dd90606401602060405180830381600087803b1580156100b457600080fd5b505af11580156100c8573d6000803e3d6000fd5b505050506040513d601f19601f820116820180604052508101906100ec9190610139565b5060405173ffffffffffffffffffffffffffffffffffffffff821681527ffb55d69a924eb175f134fb8cbb875beb7c22325179dac4eee4af2bd5de6a2ec39060200160405180910390a150565b60006020828403121561014a578081fd5b81518015158114610159578182fd5b939250505056fea26469706673582212208e4bfb07ddfd234ee9bcb6fa444811ad2fd0acef50176a52dc22bad77266d55d64736f6c63430008030033",
  "linkReferences": {},
  "deployedLinkReferences": {}
}